{
  "transactions": [
    {
      "hash": "0x2f8be8181be213873b3eb2be72fe2ec4c04d98431ae4fffec1250672aa69a606",
      "transactionType": "CREATE",
      "contractName": "Counter",
      "contractAddress": "0x05bB67cB592C1753425192bF8f34b95ca8649f09",
      "function": null,
      "arguments": null,
      "transaction": {
        "type": "0x02",
        "from": "0xf39fd6e51aad88f6f4ce6ab8827279cfffb92266",
        "gas": "0x21dee",
        "value": "0x0",
        "data": "0x608060405234801561001057600080fd5b5060f78061001f6000396000f3fe6080604052348015600f57600080fd5b5060043610603c5760003560e01c80633fb5c1cb1460415780638381f58a146053578063d09de08a14606d575b600080fd5b6051604c3660046083565b600055565b005b605b60005481565b60405190815260200160405180910390f35b6051600080549080607c83609b565b9190505550565b600060208284031215609457600080fd5b5035919050565b60006001820160ba57634e487b7160e01b600052601160045260246000fd5b506001019056fea26469706673582212208d75868c43bb9bfefbce063645a229a2f569714f9d70f198d67a7ccf78f1a74c64736f6c63430008150033",
        "nonce": "0x1f3",
        "accessList": []
      },
      "additionalContracts": [],
      "isFixedGasLimit": false
    },
    {
      "hash": "0x501639bf10f3b648c3a68b37764ac49a1afadde5ca3f7a9ba8ea46bfb484db98",
      "transactionType": "CALL",
      "contractName": "Counter",
      "contractAddress": "0x05bB67cB592C1753425192bF8f34b95ca8649f09",
      "function": "setNumber(uint256)",
      "arguments": [
        "42"
      ],
      "transaction": {
        "type": "0x02",
        "from": "0xf39fd6e51aad88f6f4ce6ab8827279cfffb92266",
        "to": "0x05bb67cb592c1753425192bf8f34b95ca8649f09",
        "gas": "0xeaab",
        "value": "0x0",
        "data": "0x3fb5c1cb000000000000000000000000000000000000000000000000000000000000002a",
        "nonce": "0x1f4",
        "accessList": []
      },
      "additionalContracts": [],
      "isFixedGasLimit": false
    },
    {
      "hash": "0xcc2e765742d6d9cac40c022df227b68ab4340b8b91d6974d3b81fb32f57dad98",
      "transactionType": "CREATE2",
      "contractName": "Counter",
      "contractAddress": "0x5f579595eDF46ce2F8ee2Dcc68C5ED7b059D5c79",
      "function": null,
      "arguments": null,
      "transaction": {
        "type": "0x02",
        "from": "0xf39fd6e51aad88f6f4ce6ab8827279cfffb92266",
        "to": "0x4e59b44847b379578588920ca78fbf26c0b4956c",
        "gas": "0x24193",
        "value": "0x0",
        "data": "0x0000000000000000000000000000000000000000000000000000000000000001608060405234801561001057600080fd5b5060f78061001f6000396000f3fe6080604052348015600f57600080fd5b5060043610603c5760003560e01c80633fb5c1cb1460415780638381f58a146053578063d09de08a14606d575b600080fd5b6051604c3660046083565b600055565b005b605b60005481565b60405190815260200160405180910390f35b6051600080549080607c83609b565b9190505550565b600060208284031215609457600080fd5b5035919050565b60006001820160ba57634e487b7160e01b600052601160045260246000fd5b506001019056fea26469706673582212208d75868c43bb9bfefbce063645a229a2f569714f9d70f198d67a7ccf78f1a74c64736f6c63430008150033",
        "nonce": "0x1f5",
        "accessList": []
      },
      "additionalContracts": [],
      "isFixedGasLimit": false
    },
    {
      "hash": "0xc5e7a163096d488af6822e494bdf1907a9eb5c5f3324edaa343a79895630a6e7",
      "transactionType": "CALL",
      "contractName": "Counter",
      "contractAddress": "0x5f579595eDF46ce2F8ee2Dcc68C5ED7b059D5c79",
      "function": "setNumber(uint256)",
      "arguments": [
        "21"
      ],
      "transaction": {
        "type": "0x02",
        "from": "0xf39fd6e51aad88f6f4ce6ab8827279cfffb92266",
        "to": "0x5f579595edf46ce2f8ee2dcc68c5ed7b059d5c79",
        "gas": "0xeaab",
        "value": "0x0",
        "data": "0x3fb5c1cb0000000000000000000000000000000000000000000000000000000000000015",
        "nonce": "0x1f6",
        "accessList": []
      },
      "additionalContracts": [],
      "isFixedGasLimit": false
    }
  ],
  "receipts": [
    {
      "transactionHash": "0x2f8be8181be213873b3eb2be72fe2ec4c04d98431ae4fffec1250672aa69a606",
      "transactionIndex": "0x0",
      "blockHash": "0xc8302acbff2921f22396340477f4d83290c128c88a2424b6605586501347ec4a",
      "blockNumber": "0x11253a7",
      "from": "0xf39Fd6e51aad88F6F4ce6aB8827279cffFb92266",
      "to": null,
      "cumulativeGasUsed": "0x1a0f1",
      "gasUsed": "0x1a0f1",
      "contractAddress": "0x05bB67cB592C1753425192bF8f34b95ca8649f09",
      "logs": [],
      "status": "0x1",
      "logsBloom": "0x00000000000000000000000000000000000000000000000000000000000000000000000000000000000000000000000000000000000000000000000000000000000000000000000000000000000000000000000000000000000000000000000000000000000000000000000000000000000000000000000000000000000000000000000000000000000000000000000000000000000000000000000000000000000000000000000000000000000000000000000000000000000000000000000000000000000000000000000000000000000000000000000000000000000000000000000000000000000000000000000000000000000000000000000000000000",
      "type": "0x2",
      "effectiveGasPrice": "0xb2d05e02"
    },
    {
      "transactionHash": "0x501639bf10f3b648c3a68b37764ac49a1afadde5ca3f7a9ba8ea46bfb484db98",
      "transactionIndex": "0x0",
      "blockHash": "0x8dc6527806946d9b4037ebec139cadc534ef69219c5b88af89ec6dfdb7c1a175",
      "blockNumber": "0x11253a8",
      "from": "0xf39Fd6e51aad88F6F4ce6aB8827279cffFb92266",
      "to": "0x05bB67cB592C1753425192bF8f34b95ca8649f09",
      "cumulativeGasUsed": "0xa9e6",
      "gasUsed": "0xa9e6",
      "contractAddress": null,
      "logs": [],
      "status": "0x1",
      "logsBloom": "0x00000000000000000000000000000000000000000000000000000000000000000000000000000000000000000000000000000000000000000000000000000000000000000000000000000000000000000000000000000000000000000000000000000000000000000000000000000000000000000000000000000000000000000000000000000000000000000000000000000000000000000000000000000000000000000000000000000000000000000000000000000000000000000000000000000000000000000000000000000000000000000000000000000000000000000000000000000000000000000000000000000000000000000000000000000000",
      "type": "0x2",
      "effectiveGasPrice": "0xb2d05e02"
    },
    {
      "transactionHash": "0xcc2e765742d6d9cac40c022df227b68ab4340b8b91d6974d3b81fb32f57dad98",
      "transactionIndex": "0x0",
      "blockHash": "0xe3ca43ed394a62032db7341c376f40965d29e399ab077ffac805fc9ad8886e4f",
      "blockNumber": "0x11253a9",
      "from": "0xf39Fd6e51aad88F6F4ce6aB8827279cffFb92266",
      "to": "0x4e59b44847b379578588920cA78FbF26c0B4956C",
      "cumulativeGasUsed": "0x1a23a",
      "gasUsed": "0x1a23a",
      "contractAddress": null,
      "logs": [],
      "status": "0x1",
      "logsBloom": "0x00000000000000000000000000000000000000000000000000000000000000000000000000000000000000000000000000000000000000000000000000000000000000000000000000000000000000000000000000000000000000000000000000000000000000000000000000000000000000000000000000000000000000000000000000000000000000000000000000000000000000000000000000000000000000000000000000000000000000000000000000000000000000000000000000000000000000000000000000000000000000000000000000000000000000000000000000000000000000000000000000000000000000000000000000000000",
      "type": "0x2",
      "effectiveGasPrice": "0xb2d05e02"
    },
    {
      "transactionHash": "0xc5e7a163096d488af6822e494bdf1907a9eb5c5f3324edaa343a79895630a6e7",
      "transactionIndex": "0x0",
      "blockHash": "0x4655759155b9e236e49613518abed12e85491639ba4d0e24f070f1cd1df1c8ac",
      "blockNumber": "0x11253aa",
      "from": "0xf39Fd6e51aad88F6F4ce6aB8827279cffFb92266",
      "to": "0x5f579595eDF46ce2F8ee2Dcc68C5ED7b059D5c79",
      "cumulativeGasUsed": "0xa9e6",
      "gasUsed": "0xa9e6",
      "contractAddress": null,
      "logs": [],
      "status": "0x1",
      "logsBloom": "0x00000000000000000000000000000000000000000000000000000000000000000000000000000000000000000000000000000000000000000000000000000000000000000000000000000000000000000000000000000000000000000000000000000000000000000000000000000000000000000000000000000000000000000000000000000000000000000000000000000000000000000000000000000000000000000000000000000000000000000000000000000000000000000000000000000000000000000000000000000000000000000000000000000000000000000000000000000000000000000000000000000000000000000000000000000000",
      "type": "0x2",
      "effectiveGasPrice": "0xb2d05e02"
    }
  ],
  "libraries": [],
  "pending": [],
  "returns": {},
  "timestamp": 1692804206,
  "chain": 1,
  "multi": false,
  "commit": "fb7b76a"
}